{
  "_format": "hh-sol-artifact-1",
  "contractName": "LookUpContract",
  "sourceName": "contracts/LookUpContract.sol",
  "abi": [
    {
      "inputs": [],
      "name": "LookUpContract__NotEnoughBalance",
      "type": "error"
    },
    {
      "inputs": [
        {
          "internalType": "address",
          "name": "caller",
          "type": "address"
        }
      ],
      "name": "LookUpContract__Unauthorized",
      "type": "error"
    },
    {
      "anonymous": false,
      "inputs": [
        {
          "indexed": true,
          "internalType": "address",
          "name": "donar",
          "type": "address"
        },
        {
          "indexed": false,
          "internalType": "uint256",
          "name": "amount",
          "type": "uint256"
        }
      ],
      "name": "DonationReceived",
      "type": "event"
    },
    {
      "anonymous": false,
      "inputs": [
        {
          "indexed": true,
          "internalType": "uint256",
          "name": "id",
          "type": "uint256"
        },
        {
          "indexed": true,
          "internalType": "address",
          "name": "owner",
          "type": "address"
        },
        {
          "indexed": true,
          "internalType": "string",
          "name": "token",
          "type": "string"
        }
      ],
      "name": "ERC20TokenListed",
      "type": "event"
    },
    {
      "inputs": [],
      "name": "_donationIndex",
      "outputs": [
        {
          "internalType": "uint256",
          "name": "",
          "type": "uint256"
        }
      ],
      "stateMutability": "view",
      "type": "function"
    },
    {
      "inputs": [],
      "name": "_tokenIndex",
      "outputs": [
        {
          "internalType": "uint256",
          "name": "",
          "type": "uint256"
        }
      ],
      "stateMutability": "view",
      "type": "function"
    },
    {
      "inputs": [
        {
          "internalType": "address",
          "name": "_owner",
          "type": "address"
        },
        {
          "internalType": "string",
          "name": "_tokenSupply",
          "type": "string"
        },
        {
          "internalType": "string",
          "name": "_tokenName",
          "type": "string"
        },
        {
          "internalType": "string",
          "name": "_tokenSymbol",
          "type": "string"
        },
        {
          "internalType": "string",
          "name": "_tokenAddress",
          "type": "string"
        },
        {
          "internalType": "string",
          "name": "_tokenTransactionHash",
          "type": "string"
        },
        {
          "internalType": "string",
          "name": "_tokenCreatedData",
          "type": "string"
        }
      ],
      "name": "createERC20Token",
      "outputs": [
        {
          "internalType": "uint256",
          "name": "",
          "type": "uint256"
        },
        {
          "internalType": "address",
          "name": "",
          "type": "address"
        },
        {
          "internalType": "string",
          "name": "",
          "type": "string"
        },
        {
          "internalType": "string",
          "name": "",
          "type": "string"
        },
        {
          "internalType": "string",
          "name": "",
          "type": "string"
        },
        {
          "internalType": "string",
          "name": "",
          "type": "string"
        }
      ],
      "stateMutability": "payable",
      "type": "function"
    },
    {
      "inputs": [],
      "name": "donate",
      "outputs": [],
      "stateMutability": "payable",
      "type": "function"
    },
    {
      "inputs": [],
      "name": "getAllDonation",
      "outputs": [
        {
          "components": [
            {
              "internalType": "uint256",
              "name": "donationID",
              "type": "uint256"
            },
            {
              "internalType": "address",
              "name": "donor",
              "type": "address"
            },
            {
              "internalType": "uint256",
              "name": "fund",
              "type": "uint256"
            }
          ],
          "internalType": "struct LookUpContract.Donation[]",
          "name": "",
          "type": "tuple[]"
        }
      ],
      "stateMutability": "view",
      "type": "function"
    },
    {
      "inputs": [],
      "name": "getAllERC20TokenListed",
      "outputs": [
        {
          "components": [
            {
              "internalType": "uint256",
              "name": "tokenID",
              "type": "uint256"
            },
            {
              "internalType": "address",
              "name": "owner",
              "type": "address"
            },
            {
              "internalType": "string",
              "name": "tokenSupply",
              "type": "string"
            },
            {
              "internalType": "string",
              "name": "tokenName",
              "type": "string"
            },
            {
              "internalType": "string",
              "name": "tokenSymbol",
              "type": "string"
            },
            {
              "internalType": "string",
              "name": "tokenAddress",
              "type": "string"
            },
            {
              "internalType": "string",
              "name": "tokenTransactionHash",
              "type": "string"
            },
            {
              "internalType": "string",
              "name": "tokenCreatedDate",
              "type": "string"
            }
          ],
          "internalType": "struct LookUpContract.ERC20Token[]",
          "name": "",
          "type": "tuple[]"
        }
      ],
      "stateMutability": "view",
      "type": "function"
    },
    {
      "inputs": [],
      "name": "getContractBalance",
      "outputs": [
        {
          "internalType": "uint256",
          "name": "",
          "type": "uint256"
        }
      ],
      "stateMutability": "view",
      "type": "function"
    },
    {
      "inputs": [
        {
          "internalType": "uint256",
          "name": "_tokenId",
          "type": "uint256"
        }
      ],
      "name": "getERC20Token",
      "outputs": [
        {
          "internalType": "uint256",
          "name": "",
          "type": "uint256"
        },
        {
          "internalType": "address",
          "name": "",
          "type": "address"
        },
        {
          "internalType": "string",
          "name": "",
          "type": "string"
        },
        {
          "internalType": "string",
          "name": "",
          "type": "string"
        },
        {
          "internalType": "string",
          "name": "",
          "type": "string"
        },
        {
          "internalType": "string",
          "name": "",
          "type": "string"
        },
        {
          "internalType": "string",
          "name": "",
          "type": "string"
        },
        {
          "internalType": "string",
          "name": "",
          "type": "string"
        }
      ],
      "stateMutability": "view",
      "type": "function"
    },
    {
      "inputs": [],
      "name": "getERC20TokenListingPrice",
      "outputs": [
        {
          "internalType": "uint256",
          "name": "",
          "type": "uint256"
        }
      ],
      "stateMutability": "view",
      "type": "function"
    },
    {
      "inputs": [
        {
          "internalType": "address",
          "name": "_user",
          "type": "address"
        }
      ],
      "name": "getUserERC20Tokens",
      "outputs": [
        {
          "components": [
            {
              "internalType": "uint256",
              "name": "tokenID",
              "type": "uint256"
            },
            {
              "internalType": "address",
              "name": "owner",
              "type": "address"
            },
            {
              "internalType": "string",
              "name": "tokenSupply",
              "type": "string"
            },
            {
              "internalType": "string",
              "name": "tokenName",
              "type": "string"
            },
            {
              "internalType": "string",
              "name": "tokenSymbol",
              "type": "string"
            },
            {
              "internalType": "string",
              "name": "tokenAddress",
              "type": "string"
            },
            {
              "internalType": "string",
              "name": "tokenTransactionHash",
              "type": "string"
            },
            {
              "internalType": "string",
              "name": "tokenCreatedDate",
              "type": "string"
            }
          ],
          "internalType": "struct LookUpContract.ERC20Token[]",
          "name": "",
          "type": "tuple[]"
        }
      ],
      "stateMutability": "view",
      "type": "function"
    },
    {
      "inputs": [],
      "name": "listingPrice",
      "outputs": [
        {
          "internalType": "uint256",
          "name": "",
          "type": "uint256"
        }
      ],
      "stateMutability": "view",
      "type": "function"
    },
    {
      "inputs": [
        {
          "internalType": "uint256",
          "name": "_listingPrice",
          "type": "uint256"
        },
        {
          "internalType": "address",
          "name": "owner",
          "type": "address"
        }
      ],
      "name": "updateListingPrice",
      "outputs": [],
      "stateMutability": "payable",
      "type": "function"
    },
    {
      "inputs": [],
      "name": "withdraw",
      "outputs": [],
      "stateMutability": "nonpayable",
      "type": "function"
    }
  ],
  "bytecode": "0x608060405273f39fd6e51aad88f6f4ce6ab8827279cfffb922666000806101000a81548173ffffffffffffffffffffffffffffffffffffffff021916908373ffffffffffffffffffffffffffffffffffffffff1602179055506658d15e1762800060015534801561006f57600080fd5b506125d88061007f6000396000f3fe6080604052600436106100c25760003560e01c806380cad5a61161007f578063a581889a11610059578063a581889a14610252578063b5c6e21f14610287578063c78f19f9146102b2578063ed88c68e146102dd576100c2565b806380cad5a6146101ce5780639463c838146101ea578063a218547714610215576100c2565b80630fbf0e31146100c75780631ec4a8b51461010b5780633ccfd60b1461013657806352e9a1a01461014d5780635b7af131146101785780636f9fb98a146101a3575b600080fd5b3480156100d357600080fd5b506100ee60048036038101906100e991906118e5565b6102e7565b6040516101029897969594939291906119f2565b60405180910390f35b34801561011757600080fd5b50610120610726565b60405161012d9190611a9a565b60405180910390f35b34801561014257600080fd5b5061014b61072c565b005b34801561015957600080fd5b50610162610865565b60405161016f9190611bc4565b60405180910390f35b34801561018457600080fd5b5061018d6109b6565b60405161019a9190611dc5565b60405180910390f35b3480156101af57600080fd5b506101b8610e61565b6040516101c59190611a9a565b60405180910390f35b6101e860048036038101906101e39190611e13565b610f00565b005b3480156101f657600080fd5b506101ff610f9b565b60405161020c9190611a9a565b60405180910390f35b34801561022157600080fd5b5061023c60048036038101906102379190611e53565b610fa5565b6040516102499190611dc5565b60405180910390f35b61026c60048036038101906102679190611fb5565b611571565b60405161027e969594939291906120ff565b60405180910390f35b34801561029357600080fd5b5061029c6116e6565b6040516102a99190611a9a565b60405180910390f35b3480156102be57600080fd5b506102c76116ec565b6040516102d49190611a9a565b60405180910390f35b6102e56116f2565b005b6000806060806060806060806000600260008b815260200190815260200160002060405180610100016040529081600082015481526020016001820160009054906101000a900473ffffffffffffffffffffffffffffffffffffffff1673ffffffffffffffffffffffffffffffffffffffff1673ffffffffffffffffffffffffffffffffffffffff168152602001600282018054610384906121ab565b80601f01602080910402602001604051908101604052809291908181526020018280546103b0906121ab565b80156103fd5780601f106103d2576101008083540402835291602001916103fd565b820191906000526020600020905b8154815290600101906020018083116103e057829003601f168201915b50505050508152602001600382018054610416906121ab565b80601f0160208091040260200160405190810160405280929190818152602001828054610442906121ab565b801561048f5780601f106104645761010080835404028352916020019161048f565b820191906000526020600020905b81548152906001019060200180831161047257829003601f168201915b505050505081526020016004820180546104a8906121ab565b80601f01602080910402602001604051908101604052809291908181526020018280546104d4906121ab565b80156105215780601f106104f657610100808354040283529160200191610521565b820191906000526020600020905b81548152906001019060200180831161050457829003601f168201915b5050505050815260200160058201805461053a906121ab565b80601f0160208091040260200160405190810160405280929190818152602001828054610566906121ab565b80156105b35780601f10610588576101008083540402835291602001916105b3565b820191906000526020600020905b81548152906001019060200180831161059657829003601f168201915b505050505081526020016006820180546105cc906121ab565b80601f01602080910402602001604051908101604052809291908181526020018280546105f8906121ab565b80156106455780601f1061061a57610100808354040283529160200191610645565b820191906000526020600020905b81548152906001019060200180831161062857829003601f168201915b5050505050815260200160078201805461065e906121ab565b80601f016020809104026020016040519081016040528092919081815260200182805461068a906121ab565b80156106d75780601f106106ac576101008083540402835291602001916106d7565b820191906000526020600020905b8154815290600101906020018083116106ba57829003601f168201915b5050505050815250509050806000015181602001518260400151836060015184608001518560a001518660c001518760e001519850985098509850985098509850985050919395975091939597565b60055481565b60008054906101000a900473ffffffffffffffffffffffffffffffffffffffff1673ffffffffffffffffffffffffffffffffffffffff163373ffffffffffffffffffffffffffffffffffffffff16146107bc57336040517f696b16200000000000000000000000000000000000000000000000000000000081526004016107b391906121dc565b60405180910390fd5b6000479050600081116107fb576040517f398e908000000000000000000000000000000000000000000000000000000000815260040160405180910390fd5b60008054906101000a900473ffffffffffffffffffffffffffffffffffffffff1673ffffffffffffffffffffffffffffffffffffffff166108fc829081150290604051600060405180830381858888f19350505050158015610861573d6000803e3d6000fd5b5050565b6060600060055490506000808267ffffffffffffffff81111561088b5761088a611e8a565b5b6040519080825280602002602001820160405280156108c457816020015b6108b1611809565b8152602001906001900390816108a95790505b50905060005b838110156109ac5760006001826108e19190612226565b9050600060036000838152602001908152602001600020905080604051806060016040529081600082015481526020016001820160009054906101000a900473ffffffffffffffffffffffffffffffffffffffff1673ffffffffffffffffffffffffffffffffffffffff1673ffffffffffffffffffffffffffffffffffffffff1681526020016002820154815250508486815181106109835761098261225a565b5b602002602001018190525060018561099b9190612226565b9450505080806001019150506108ca565b5080935050505090565b6060600060045490506000808267ffffffffffffffff8111156109dc576109db611e8a565b5b604051908082528060200260200182016040528015610a1557816020015b610a02611840565b8152602001906001900390816109fa5790505b5090506000600190505b838111610e575760006002600083815260200190815260200160002090508060405180610100016040529081600082015481526020016001820160009054906101000a900473ffffffffffffffffffffffffffffffffffffffff1673ffffffffffffffffffffffffffffffffffffffff1673ffffffffffffffffffffffffffffffffffffffff168152602001600282018054610aba906121ab565b80601f0160208091040260200160405190810160405280929190818152602001828054610ae6906121ab565b8015610b335780601f10610b0857610100808354040283529160200191610b33565b820191906000526020600020905b815481529060010190602001808311610b1657829003601f168201915b50505050508152602001600382018054610b4c906121ab565b80601f0160208091040260200160405190810160405280929190818152602001828054610b78906121ab565b8015610bc55780601f10610b9a57610100808354040283529160200191610bc5565b820191906000526020600020905b815481529060010190602001808311610ba857829003601f168201915b50505050508152602001600482018054610bde906121ab565b80601f0160208091040260200160405190810160405280929190818152602001828054610c0a906121ab565b8015610c575780601f10610c2c57610100808354040283529160200191610c57565b820191906000526020600020905b815481529060010190602001808311610c3a57829003601f168201915b50505050508152602001600582018054610c70906121ab565b80601f0160208091040260200160405190810160405280929190818152602001828054610c9c906121ab565b8015610ce95780601f10610cbe57610100808354040283529160200191610ce9565b820191906000526020600020905b815481529060010190602001808311610ccc57829003601f168201915b50505050508152602001600682018054610d02906121ab565b80601f0160208091040260200160405190810160405280929190818152602001828054610d2e906121ab565b8015610d7b5780601f10610d5057610100808354040283529160200191610d7b565b820191906000526020600020905b815481529060010190602001808311610d5e57829003601f168201915b50505050508152602001600782018054610d94906121ab565b80601f0160208091040260200160405190810160405280929190818152602001828054610dc0906121ab565b8015610e0d5780601f10610de257610100808354040283529160200191610e0d565b820191906000526020600020905b815481529060010190602001808311610df057829003601f168201915b505050505081525050838581518110610e2957610e2861225a565b5b6020026020010181905250600184610e419190612226565b9350508080610e4f90612289565b915050610a1f565b5080935050505090565b60008060009054906101000a900473ffffffffffffffffffffffffffffffffffffffff1673ffffffffffffffffffffffffffffffffffffffff163373ffffffffffffffffffffffffffffffffffffffff1614610ef457336040517f696b1620000000000000000000000000000000000000000000000000000000008152600401610eeb91906121dc565b60405180910390fd5b60004790508091505090565b60008054906101000a900473ffffffffffffffffffffffffffffffffffffffff1673ffffffffffffffffffffffffffffffffffffffff163373ffffffffffffffffffffffffffffffffffffffff1614610f9057336040517f696b1620000000000000000000000000000000000000000000000000000000008152600401610f8791906121dc565b60405180910390fd5b816001819055505050565b6000600154905090565b60606000600454905060008060005b8381101561104d578573ffffffffffffffffffffffffffffffffffffffff1660026000600184610fe49190612226565b815260200190815260200160002060010160009054906101000a900473ffffffffffffffffffffffffffffffffffffffff1673ffffffffffffffffffffffffffffffffffffffff160361104057828061103c90612289565b9350505b8080600101915050610fb4565b5060008267ffffffffffffffff81111561106a57611069611e8a565b5b6040519080825280602002602001820160405280156110a357816020015b611090611840565b8152602001906001900390816110885790505b50905060005b84811015611564578673ffffffffffffffffffffffffffffffffffffffff16600260006001846110d99190612226565b815260200190815260200160002060010160009054906101000a900473ffffffffffffffffffffffffffffffffffffffff1673ffffffffffffffffffffffffffffffffffffffff16036115575760006001826111359190612226565b905060006002600083815260200190815260200160002090508060405180610100016040529081600082015481526020016001820160009054906101000a900473ffffffffffffffffffffffffffffffffffffffff1673ffffffffffffffffffffffffffffffffffffffff1673ffffffffffffffffffffffffffffffffffffffff1681526020016002820180546111cb906121ab565b80601f01602080910402602001604051908101604052809291908181526020018280546111f7906121ab565b80156112445780601f1061121957610100808354040283529160200191611244565b820191906000526020600020905b81548152906001019060200180831161122757829003601f168201915b5050505050815260200160038201805461125d906121ab565b80601f0160208091040260200160405190810160405280929190818152602001828054611289906121ab565b80156112d65780601f106112ab576101008083540402835291602001916112d6565b820191906000526020600020905b8154815290600101906020018083116112b957829003601f168201915b505050505081526020016004820180546112ef906121ab565b80601f016020809104026020016040519081016040528092919081815260200182805461131b906121ab565b80156113685780601f1061133d57610100808354040283529160200191611368565b820191906000526020600020905b81548152906001019060200180831161134b57829003601f168201915b50505050508152602001600582018054611381906121ab565b80601f01602080910402602001604051908101604052809291908181526020018280546113ad906121ab565b80156113fa5780601f106113cf576101008083540402835291602001916113fa565b820191906000526020600020905b8154815290600101906020018083116113dd57829003601f168201915b50505050508152602001600682018054611413906121ab565b80601f016020809104026020016040519081016040528092919081815260200182805461143f906121ab565b801561148c5780601f106114615761010080835404028352916020019161148c565b820191906000526020600020905b81548152906001019060200180831161146f57829003601f168201915b505050505081526020016007820180546114a5906121ab565b80601f01602080910402602001604051908101604052809291908181526020018280546114d1906121ab565b801561151e5780601f106114f35761010080835404028352916020019161151e565b820191906000526020600020905b81548152906001019060200180831161150157829003601f168201915b50505050508152505084868151811061153a5761153961225a565b5b60200260200101819052506001856115529190612226565b945050505b80806001019150506110a9565b5080945050505050919050565b6000806060806060806004600081548092919061158d90612289565b91905055506000600454905060006002600083815260200190815260200160002090508181600001819055508e8160010160006101000a81548173ffffffffffffffffffffffffffffffffffffffff021916908373ffffffffffffffffffffffffffffffffffffffff1602179055508d81600201908161160d919061247d565b508c81600301908161161f919061247d565b508b816004019081611631919061247d565b508a816005019081611643919061247d565b5089816006019081611655919061247d565b5088816007019081611667919061247d565b508a604051611676919061258b565b60405180910390208f73ffffffffffffffffffffffffffffffffffffffff16837f72e070645b8753b7561512bdcd5680da44ba132de789fec82d235d43ec008d9b60405160405180910390a4818f8f8f8f8f97509750975097509750975050509750975097509750975097915050565b60045481565b60015481565b6000341161172c576040517f398e908000000000000000000000000000000000000000000000000000000000815260040160405180910390fd5b6005600081548092919061173f90612289565b9190505550600060055490506000600360008381526020019081526020016000209050818160000181905550338160010160006101000a81548173ffffffffffffffffffffffffffffffffffffffff021916908373ffffffffffffffffffffffffffffffffffffffff1602179055503481600201819055503373ffffffffffffffffffffffffffffffffffffffff167f264f630d9efa0d07053a31163641d9fcc0adafc9d9e76f1c37c2ce3a558d2c52346040516117fd9190611a9a565b60405180910390a25050565b604051806060016040528060008152602001600073ffffffffffffffffffffffffffffffffffffffff168152602001600081525090565b60405180610100016040528060008152602001600073ffffffffffffffffffffffffffffffffffffffff1681526020016060815260200160608152602001606081526020016060815260200160608152602001606081525090565b6000604051905090565b600080fd5b600080fd5b6000819050919050565b6118c2816118af565b81146118cd57600080fd5b50565b6000813590506118df816118b9565b92915050565b6000602082840312156118fb576118fa6118a5565b5b6000611909848285016118d0565b91505092915050565b61191b816118af565b82525050565b600073ffffffffffffffffffffffffffffffffffffffff82169050919050565b600061194c82611921565b9050919050565b61195c81611941565b82525050565b600081519050919050565b600082825260208201905092915050565b60005b8381101561199c578082015181840152602081019050611981565b60008484015250505050565b6000601f19601f8301169050919050565b60006119c482611962565b6119ce818561196d565b93506119de81856020860161197e565b6119e7816119a8565b840191505092915050565b600061010082019050611a08600083018b611912565b611a15602083018a611953565b8181036040830152611a2781896119b9565b90508181036060830152611a3b81886119b9565b90508181036080830152611a4f81876119b9565b905081810360a0830152611a6381866119b9565b905081810360c0830152611a7781856119b9565b905081810360e0830152611a8b81846119b9565b90509998505050505050505050565b6000602082019050611aaf6000830184611912565b92915050565b600081519050919050565b600082825260208201905092915050565b6000819050602082019050919050565b611aea816118af565b82525050565b611af981611941565b82525050565b606082016000820151611b156000850182611ae1565b506020820151611b286020850182611af0565b506040820151611b3b6040850182611ae1565b50505050565b6000611b4d8383611aff565b60608301905092915050565b6000602082019050919050565b6000611b7182611ab5565b611b7b8185611ac0565b9350611b8683611ad1565b8060005b83811015611bb7578151611b9e8882611b41565b9750611ba983611b59565b925050600181019050611b8a565b5085935050505092915050565b60006020820190508181036000830152611bde8184611b66565b905092915050565b600081519050919050565b600082825260208201905092915050565b6000819050602082019050919050565b600082825260208201905092915050565b6000611c2e82611962565b611c388185611c12565b9350611c4881856020860161197e565b611c51816119a8565b840191505092915050565b600061010083016000830151611c756000860182611ae1565b506020830151611c886020860182611af0565b5060408301518482036040860152611ca08282611c23565b91505060608301518482036060860152611cba8282611c23565b91505060808301518482036080860152611cd48282611c23565b91505060a083015184820360a0860152611cee8282611c23565b91505060c083015184820360c0860152611d088282611c23565b91505060e083015184820360e0860152611d228282611c23565b9150508091505092915050565b6000611d3b8383611c5c565b905092915050565b6000602082019050919050565b6000611d5b82611be6565b611d658185611bf1565b935083602082028501611d7785611c02565b8060005b85811015611db35784840389528151611d948582611d2f565b9450611d9f83611d43565b925060208a01995050600181019050611d7b565b50829750879550505050505092915050565b60006020820190508181036000830152611ddf8184611d50565b905092915050565b611df081611941565b8114611dfb57600080fd5b50565b600081359050611e0d81611de7565b92915050565b60008060408385031215611e2a57611e296118a5565b5b6000611e38858286016118d0565b9250506020611e4985828601611dfe565b9150509250929050565b600060208284031215611e6957611e686118a5565b5b6000611e7784828501611dfe565b91505092915050565b600080fd5b600080fd5b7f4e487b7100000000000000000000000000000000000000000000000000000000600052604160045260246000fd5b611ec2826119a8565b810181811067ffffffffffffffff82111715611ee157611ee0611e8a565b5b80604052505050565b6000611ef461189b565b9050611f008282611eb9565b919050565b600067ffffffffffffffff821115611f2057611f1f611e8a565b5b611f29826119a8565b9050602081019050919050565b82818337600083830152505050565b6000611f58611f5384611f05565b611eea565b905082815260208101848484011115611f7457611f73611e85565b5b611f7f848285611f36565b509392505050565b600082601f830112611f9c57611f9b611e80565b5b8135611fac848260208601611f45565b91505092915050565b600080600080600080600060e0888a031215611fd457611fd36118a5565b5b6000611fe28a828b01611dfe565b975050602088013567ffffffffffffffff811115612003576120026118aa565b5b61200f8a828b01611f87565b965050604088013567ffffffffffffffff8111156120305761202f6118aa565b5b61203c8a828b01611f87565b955050606088013567ffffffffffffffff81111561205d5761205c6118aa565b5b6120698a828b01611f87565b945050608088013567ffffffffffffffff81111561208a576120896118aa565b5b6120968a828b01611f87565b93505060a088013567ffffffffffffffff8111156120b7576120b66118aa565b5b6120c38a828b01611f87565b92505060c088013567ffffffffffffffff8111156120e4576120e36118aa565b5b6120f08a828b01611f87565b91505092959891949750929550565b600060c0820190506121146000830189611912565b6121216020830188611953565b818103604083015261213381876119b9565b9050818103606083015261214781866119b9565b9050818103608083015261215b81856119b9565b905081810360a083015261216f81846119b9565b9050979650505050505050565b7f4e487b7100000000000000000000000000000000000000000000000000000000600052602260045260246000fd5b600060028204905060018216806121c357607f821691505b6020821081036121d6576121d561217c565b5b50919050565b60006020820190506121f16000830184611953565b92915050565b7f4e487b7100000000000000000000000000000000000000000000000000000000600052601160045260246000fd5b6000612231826118af565b915061223c836118af565b9250828201905080821115612254576122536121f7565b5b92915050565b7f4e487b7100000000000000000000000000000000000000000000000000000000600052603260045260246000fd5b6000612294826118af565b91507fffffffffffffffffffffffffffffffffffffffffffffffffffffffffffffffff82036122c6576122c56121f7565b5b600182019050919050565b60008190508160005260206000209050919050565b60006020601f8301049050919050565b600082821b905092915050565b6000600883026123337fffffffffffffffffffffffffffffffffffffffffffffffffffffffffffffffff826122f6565b61233d86836122f6565b95508019841693508086168417925050509392505050565b6000819050919050565b600061237a612375612370846118af565b612355565b6118af565b9050919050565b6000819050919050565b6123948361235f565b6123a86123a082612381565b848454612303565b825550505050565b600090565b6123bd6123b0565b6123c881848461238b565b505050565b5b818110156123ec576123e16000826123b5565b6001810190506123ce565b5050565b601f82111561243157612402816122d1565b61240b846122e6565b8101602085101561241a578190505b61242e612426856122e6565b8301826123cd565b50505b505050565b600082821c905092915050565b600061245460001984600802612436565b1980831691505092915050565b600061246d8383612443565b9150826002028217905092915050565b61248682611962565b67ffffffffffffffff81111561249f5761249e611e8a565b5b6124a982546121ab565b6124b48282856123f0565b600060209050601f8311600181146124e757600084156124d5578287015190505b6124df8582612461565b865550612547565b601f1984166124f5866122d1565b60005b8281101561251d578489015182556001820191506020850194506020810190506124f8565b8683101561253a5784890151612536601f891682612443565b8355505b6001600288020188555050505b505050505050565b600081905092915050565b600061256582611962565b61256f818561254f565b935061257f81856020860161197e565b80840191505092915050565b6000612597828461255a565b91508190509291505056fea2646970667358221220f26774ab54b47f818c2b237cd76d4547978e5939b1e877c7fccb107e7f1e061064736f6c63430008160033",
  "linkReferences": {},
  "deployedLinkReferences": {}
}